:03000000020951A1
:0C095100787FE4F6D8FD75812602099835
:100A350053797374656D2052656164792E2E2E008D
:100A45004C49474854204F4E004C49474854204F85
:100A550046460046414E204F4E0046414E204F46E9
:0F0A650046005456204F4E005456204F46460030
:0C0B44000212000002170000020E000068
:080AE500C2A1D2A27F0A7E002B
:100AED00E4FDFCC3ED9FEC9E5015E4FBFA0BBB003F
:0F0AFD00010ABA04F8BBFBF50DBD00010C80E443
:010B0C0022C6
:080B71008F993099FDC2992211
:100B31001209DDFF600C120B71740129F9E43AFA14
:030B410080EE2221
:0C0B5100758920759850758DFDD28E229C
:080AAF008B218A2289238D248A
:100AB700E4F525F526C3E5269524E5259400501D84
:100AC700AB21AA22A9238526828525831209F6FF51
:0D0AD700120B5D0526E52670DC052580D894
:010AE40022EF
:080A74008B1B8A1C891D8D1EDD
:100A7C00E4F51FF520C3E520951EE51F94005022D8
:100A8C00AB1BAA1CA91D1209DDFF120B5D740125FD
:100A9C001DF51DE4351CF51C0520E52070D7051F40
:020AAC0080D3F5
:010AAE002225
:100B0D007F01120B67120AE97F38120B67120AE98F
:100B1D007F06120B67120AE97F0C120B677F0A7EA4
:040B2D0000020AEDCB
:0A0B5D008F90D2A0120AE5C2A22276
:0A0B67008F90C2A0120AE5C2A2227C
:10080000120B0DE4F580120B517BFF7A0A79351239
:100810000B317A0A79357D0F120AAF120AE9E4F535
:1008200010F5117F80120B67120AE93098FDAB08B2
:10083000AA09A90AE599120A23AB08AA09A90A126A
:1008400009DDAB0BAA0CA90D120A237F01120B675D
:10085000C298AB0BAA0CA90D1209DDB4611B7F0174
:10086000120B677BFF7A0A79457D08120AAFD281A5
:100870007BFF7A0A794502090FAB0BAA0CA90D126E
:1008800009DDB4621A7F01120B677BFF7A0A794E89
:100890007D09120AAFC2817BFF7A0A794E8070AB64
:1008A0000BAA0CA90D1209DDB4631A7F01120B67A4
:1008B0007BFF7A0A79587D06120AAFD2807BFF7AD5
:1008C0000A7958804AAB0BAA0CA90D1209DDB46451
:1008D0001A7F01120B677BFF7A0A795F7D07120A84
:1008E000AFC2807BFF7A0A795F8024AB0BAA0CA988
:1008F0000D1209DDB465257F01120B677BFF7A0AB3
:1009000079677D05120AAFD2827BFF7A0A79671276
:100910000B317F327E00120AED020823AB0BAA0CCA
:10092000A90D1209DD646660030208237F01120B22
:10093000677BFF7A0A796D7D06120AAFC2827BFF60
:100940007A0A796D120B317F327E00120AED0208AD
:010950002383
:10095D00020800E493A3F8E493A34003F68001F2A8
:10096D0008DFF48029E493A3F85407240CC8C3339B
:10097D00C4540F4420C8834004F456800146F6DF6A
:10098D00E4800B0102040810204080900B44E47EAB
:10099D00019360BCA3FF543F30E509541FFEE4935F
:1009AD00A360010ECF54C025E060A840B8E493A326
:1009BD00FAE493A3F8E493A3C8C582C8CAC583CA51
:1009CD00F0A3C8C582C8CAC583CADFE9DEE780BE09
:010B500000A4
:1009DD00BB010689828A83E0225002E722BBFE0218
:0909ED00E32289828A83E493224B
:1009F600BB010CE58229F582E5833AF583E02250B6
:100A060006E92582F8E622BBFE06E92582F8E222FF
:0D0A1600E58229F582E5833AF583E4932219
:100A2300BB010689828A83F0225002F722BBFE01B2
:020A3300F322AC
:00000001FF
